{
  "contractName": "MaintenanceFee",
  "abi": [
    {
      "anonymous": false,
      "inputs": [
        {
          "indexed": true,
          "internalType": "bytes32",
          "name": "paymentId",
          "type": "bytes32"
        },
        {
          "indexed": true,
          "internalType": "bytes32",
          "name": "buildingId",
          "type": "bytes32"
        },
        {
          "indexed": false,
          "internalType": "string",
          "name": "month",
          "type": "string"
        }
      ],
      "name": "FeePaid",
      "type": "event"
    },
    {
      "anonymous": false,
      "inputs": [
        {
          "indexed": true,
          "internalType": "bytes32",
          "name": "buildingId",
          "type": "bytes32"
        },
        {
          "indexed": false,
          "internalType": "uint256",
          "name": "amount",
          "type": "uint256"
        }
      ],
      "name": "FeeSet",
      "type": "event"
    },
    {
      "inputs": [
        {
          "internalType": "bytes32",
          "name": "",
          "type": "bytes32"
        }
      ],
      "name": "buildingManagers",
      "outputs": [
        {
          "internalType": "address",
          "name": "",
          "type": "address"
        }
      ],
      "stateMutability": "view",
      "type": "function",
      "constant": true
    },
    {
      "inputs": [
        {
          "internalType": "bytes32",
          "name": "",
          "type": "bytes32"
        },
        {
          "internalType": "string",
          "name": "",
          "type": "string"
        },
        {
          "internalType": "uint256",
          "name": "",
          "type": "uint256"
        }
      ],
      "name": "buildingPayments",
      "outputs": [
        {
          "internalType": "bytes32",
          "name": "",
          "type": "bytes32"
        }
      ],
      "stateMutability": "view",
      "type": "function",
      "constant": true
    },
    {
      "inputs": [
        {
          "internalType": "bytes32",
          "name": "",
          "type": "bytes32"
        }
      ],
      "name": "monthlyFees",
      "outputs": [
        {
          "internalType": "uint256",
          "name": "",
          "type": "uint256"
        }
      ],
      "stateMutability": "view",
      "type": "function",
      "constant": true
    },
    {
      "inputs": [
        {
          "internalType": "bytes32",
          "name": "",
          "type": "bytes32"
        }
      ],
      "name": "payments",
      "outputs": [
        {
          "internalType": "bytes32",
          "name": "buildingId",
          "type": "bytes32"
        },
        {
          "internalType": "string",
          "name": "apartmentNo",
          "type": "string"
        },
        {
          "internalType": "address",
          "name": "tenant",
          "type": "address"
        },
        {
          "internalType": "string",
          "name": "month",
          "type": "string"
        },
        {
          "internalType": "uint256",
          "name": "amount",
          "type": "uint256"
        },
        {
          "internalType": "uint256",
          "name": "paymentDate",
          "type": "uint256"
        },
        {
          "internalType": "bool",
          "name": "isPaid",
          "type": "bool"
        },
        {
          "internalType": "bool",
          "name": "exists",
          "type": "bool"
        }
      ],
      "stateMutability": "view",
      "type": "function",
      "constant": true
    },
    {
      "inputs": [
        {
          "internalType": "bytes32",
          "name": "_buildingId",
          "type": "bytes32"
        },
        {
          "internalType": "uint256",
          "name": "_amount",
          "type": "uint256"
        }
      ],
      "name": "setMonthlyFee",
      "outputs": [],
      "stateMutability": "nonpayable",
      "type": "function"
    },
    {
      "inputs": [
        {
          "internalType": "bytes32",
          "name": "_buildingId",
          "type": "bytes32"
        },
        {
          "internalType": "string",
          "name": "_apartmentNo",
          "type": "string"
        },
        {
          "internalType": "string",
          "name": "_month",
          "type": "string"
        }
      ],
      "name": "payFee",
      "outputs": [],
      "stateMutability": "payable",
      "type": "function",
      "payable": true
    },
    {
      "inputs": [
        {
          "internalType": "bytes32",
          "name": "_paymentId",
          "type": "bytes32"
        }
      ],
      "name": "getPayment",
      "outputs": [
        {
          "components": [
            {
              "internalType": "bytes32",
              "name": "buildingId",
              "type": "bytes32"
            },
            {
              "internalType": "string",
              "name": "apartmentNo",
              "type": "string"
            },
            {
              "internalType": "address",
              "name": "tenant",
              "type": "address"
            },
            {
              "internalType": "string",
              "name": "month",
              "type": "string"
            },
            {
              "internalType": "uint256",
              "name": "amount",
              "type": "uint256"
            },
            {
              "internalType": "uint256",
              "name": "paymentDate",
              "type": "uint256"
            },
            {
              "internalType": "bool",
              "name": "isPaid",
              "type": "bool"
            },
            {
              "internalType": "bool",
              "name": "exists",
              "type": "bool"
            }
          ],
          "internalType": "struct MaintenanceFee.Payment",
          "name": "",
          "type": "tuple"
        }
      ],
      "stateMutability": "view",
      "type": "function",
      "constant": true
    },
    {
      "inputs": [
        {
          "internalType": "bytes32",
          "name": "_buildingId",
          "type": "bytes32"
        },
        {
          "internalType": "string",
          "name": "_month",
          "type": "string"
        }
      ],
      "name": "getBuildingPayments",
      "outputs": [
        {
          "internalType": "bytes32[]",
          "name": "",
          "type": "bytes32[]"
        }
      ],
      "stateMutability": "view",
      "type": "function",
      "constant": true
    }
  ],
  "bytecode": "0x608060405234801561001057600080fd5b506117aa806100206000396000f3fe60806040526004361061007b5760003560e01c8063e0a930df1161004e578063e0a930df14610146578063e66eefc814610183578063e81e587f146101c0578063ed0e50fb146101fd5761007b565b806302b355ec146100805780630716326d146100a9578063d2ac30be146100ed578063d6bace311461012a575b600080fd5b34801561008c57600080fd5b506100a760048036038101906100a29190610be4565b61023a565b005b3480156100b557600080fd5b506100d060048036038101906100cb9190610c24565b6102e0565b6040516100e4989796959493929190610d5b565b60405180910390f35b3480156100f957600080fd5b50610114600480360381019061010f9190610f1c565b610472565b6040516101219190611036565b60405180910390f35b610144600480360381019061013f9190611058565b6104fa565b005b34801561015257600080fd5b5061016d60048036038101906101689190610c24565b610868565b60405161017a91906110e3565b60405180910390f35b34801561018f57600080fd5b506101aa60048036038101906101a59190610c24565b61089b565b6040516101b7919061122c565b60405180910390f35b3480156101cc57600080fd5b506101e760048036038101906101e2919061124e565b610a96565b6040516101f491906112bd565b60405180910390f35b34801561020957600080fd5b50610224600480360381019061021f9190610c24565b610aea565b60405161023191906112d8565b60405180910390f35b806002600084815260200190815260200160002081905550336003600084815260200190815260200160002060006101000a81548173ffffffffffffffffffffffffffffffffffffffff021916908373ffffffffffffffffffffffffffffffffffffffff160217905550817fdb12e4938bdc4407b4fe2690102950fb54b88ef08ca2e9f4f4ba4783367ed780826040516102d491906112d8565b60405180910390a25050565b600060205280600052604060002060009150905080600001549080600101805461030990611322565b80601f016020809104026020016040519081016040528092919081815260200182805461033590611322565b80156103825780601f1061035757610100808354040283529160200191610382565b820191906000526020600020905b81548152906001019060200180831161036557829003601f168201915b5050505050908060020160009054906101000a900473ffffffffffffffffffffffffffffffffffffffff16908060030180546103bd90611322565b80601f01602080910402602001604051908101604052809291908181526020018280546103e990611322565b80156104365780601f1061040b57610100808354040283529160200191610436565b820191906000526020600020905b81548152906001019060200180831161041957829003601f168201915b5050505050908060040154908060050154908060060160009054906101000a900460ff16908060060160019054906101000a900460ff16905088565b60606001600084815260200190815260200160002082604051610495919061138f565b90815260200160405180910390208054806020026020016040519081016040528092919081815260200182805480156104ed57602002820191906000526020600020905b8154815260200190600101908083116104d9575b5050505050905092915050565b6002600084815260200190815260200160002054341015610550576040517f08c379a0000000000000000000000000000000000000000000000000000000008152600401610547906113f2565b60405180910390fd5b600083838360405160200161056793929190611433565b60405160208183030381529060405280519060200120905060008082815260200190815260200160002060060160009054906101000a900460ff16156105e2576040517f08c379a00000000000000000000000000000000000000000000000000000000081526004016105d9906114b4565b60405180910390fd5b6040518061010001604052808581526020018481526020013373ffffffffffffffffffffffffffffffffffffffff168152602001838152602001348152602001428152602001600115158152602001600115158152506000808381526020019081526020016000206000820151816000015560208201518160010190816106699190611680565b5060408201518160020160006101000a81548173ffffffffffffffffffffffffffffffffffffffff021916908373ffffffffffffffffffffffffffffffffffffffff16021790555060608201518160030190816106c69190611680565b506080820151816004015560a0820151816005015560c08201518160060160006101000a81548160ff02191690831515021790555060e08201518160060160016101000a81548160ff021916908315150217905550905050600160008581526020019081526020016000208260405161073f919061138f565b908152602001604051809103902081908060018154018082558091505060019003906000526020600020016000909190919091505560006003600086815260200190815260200160002060009054906101000a900473ffffffffffffffffffffffffffffffffffffffff169050600073ffffffffffffffffffffffffffffffffffffffff168173ffffffffffffffffffffffffffffffffffffffff1614610828578073ffffffffffffffffffffffffffffffffffffffff166108fc349081150290604051600060405180830381858888f19350505050158015610826573d6000803e3d6000fd5b505b84827fafeff6063fee901c85740672e355f73e421c5ab69f81775ebb9d319a398a5a3d856040516108599190611752565b60405180910390a35050505050565b60036020528060005260406000206000915054906101000a900473ffffffffffffffffffffffffffffffffffffffff1681565b6108a3610b02565b60008083815260200190815260200160002060405180610100016040529081600082015481526020016001820180546108db90611322565b80601f016020809104026020016040519081016040528092919081815260200182805461090790611322565b80156109545780601f1061092957610100808354040283529160200191610954565b820191906000526020600020905b81548152906001019060200180831161093757829003601f168201915b505050505081526020016002820160009054906101000a900473ffffffffffffffffffffffffffffffffffffffff1673ffffffffffffffffffffffffffffffffffffffff1673ffffffffffffffffffffffffffffffffffffffff1681526020016003820180546109c390611322565b80601f01602080910402602001604051908101604052809291908181526020018280546109ef90611322565b8015610a3c5780601f10610a1157610100808354040283529160200191610a3c565b820191906000526020600020905b815481529060010190602001808311610a1f57829003601f168201915b5050505050815260200160048201548152602001600582015481526020016006820160009054906101000a900460ff161515151581526020016006820160019054906101000a900460ff1615151515815250509050919050565b6001602052826000526040600020828051602081018201805184825260208301602085012081835280955050505050508181548110610ad457600080fd5b9060005260206000200160009250925050505481565b60026020528060005260406000206000915090505481565b6040518061010001604052806000801916815260200160608152602001600073ffffffffffffffffffffffffffffffffffffffff1681526020016060815260200160008152602001600081526020016000151581526020016000151581525090565b6000604051905090565b600080fd5b600080fd5b6000819050919050565b610b8b81610b78565b8114610b9657600080fd5b50565b600081359050610ba881610b82565b92915050565b6000819050919050565b610bc181610bae565b8114610bcc57600080fd5b50565b600081359050610bde81610bb8565b92915050565b60008060408385031215610bfb57610bfa610b6e565b5b6000610c0985828601610b99565b9250506020610c1a85828601610bcf565b9150509250929050565b600060208284031215610c3a57610c39610b6e565b5b6000610c4884828501610b99565b91505092915050565b610c5a81610b78565b82525050565b600081519050919050565b600082825260208201905092915050565b60005b83811015610c9a578082015181840152602081019050610c7f565b60008484015250505050565b6000601f19601f8301169050919050565b6000610cc282610c60565b610ccc8185610c6b565b9350610cdc818560208601610c7c565b610ce581610ca6565b840191505092915050565b600073ffffffffffffffffffffffffffffffffffffffff82169050919050565b6000610d1b82610cf0565b9050919050565b610d2b81610d10565b82525050565b610d3a81610bae565b82525050565b60008115159050919050565b610d5581610d40565b82525050565b600061010082019050610d71600083018b610c51565b8181036020830152610d83818a610cb7565b9050610d926040830189610d22565b8181036060830152610da48188610cb7565b9050610db36080830187610d31565b610dc060a0830186610d31565b610dcd60c0830185610d4c565b610dda60e0830184610d4c565b9998505050505050505050565b600080fd5b600080fd5b7f4e487b7100000000000000000000000000000000000000000000000000000000600052604160045260246000fd5b610e2982610ca6565b810181811067ffffffffffffffff82111715610e4857610e47610df1565b5b80604052505050565b6000610e5b610b64565b9050610e678282610e20565b919050565b600067ffffffffffffffff821115610e8757610e86610df1565b5b610e9082610ca6565b9050602081019050919050565b82818337600083830152505050565b6000610ebf610eba84610e6c565b610e51565b905082815260208101848484011115610edb57610eda610dec565b5b610ee6848285610e9d565b509392505050565b600082601f830112610f0357610f02610de7565b5b8135610f13848260208601610eac565b91505092915050565b60008060408385031215610f3357610f32610b6e565b5b6000610f4185828601610b99565b925050602083013567ffffffffffffffff811115610f6257610f61610b73565b5b610f6e85828601610eee565b9150509250929050565b600081519050919050565b600082825260208201905092915050565b6000819050602082019050919050565b610fad81610b78565b82525050565b6000610fbf8383610fa4565b60208301905092915050565b6000602082019050919050565b6000610fe382610f78565b610fed8185610f83565b9350610ff883610f94565b8060005b838110156110295781516110108882610fb3565b975061101b83610fcb565b925050600181019050610ffc565b5085935050505092915050565b600060208201905081810360008301526110508184610fd8565b905092915050565b60008060006060848603121561107157611070610b6e565b5b600061107f86828701610b99565b935050602084013567ffffffffffffffff8111156110a05761109f610b73565b5b6110ac86828701610eee565b925050604084013567ffffffffffffffff8111156110cd576110cc610b73565b5b6110d986828701610eee565b9150509250925092565b60006020820190506110f86000830184610d22565b92915050565b600082825260208201905092915050565b600061111a82610c60565b61112481856110fe565b9350611134818560208601610c7c565b61113d81610ca6565b840191505092915050565b61115181610d10565b82525050565b61116081610bae565b82525050565b61116f81610d40565b82525050565b60006101008301600083015161118e6000860182610fa4565b50602083015184820360208601526111a6828261110f565b91505060408301516111bb6040860182611148565b50606083015184820360608601526111d3828261110f565b91505060808301516111e86080860182611157565b5060a08301516111fb60a0860182611157565b5060c083015161120e60c0860182611166565b5060e083015161122160e0860182611166565b508091505092915050565b600060208201905081810360008301526112468184611175565b905092915050565b60008060006060848603121561126757611266610b6e565b5b600061127586828701610b99565b935050602084013567ffffffffffffffff81111561129657611295610b73565b5b6112a286828701610eee565b92505060406112b386828701610bcf565b9150509250925092565b60006020820190506112d26000830184610c51565b92915050565b60006020820190506112ed6000830184610d31565b92915050565b7f4e487b7100000000000000000000000000000000000000000000000000000000600052602260045260246000fd5b6000600282049050600182168061133a57607f821691505b60208210810361134d5761134c6112f3565b5b50919050565b600081905092915050565b600061136982610c60565b6113738185611353565b9350611383818560208601610c7c565b80840191505092915050565b600061139b828461135e565b915081905092915050565b7f496e73756666696369656e742066656520616d6f756e74000000000000000000600082015250565b60006113dc601783610c6b565b91506113e7826113a6565b602082019050919050565b6000602082019050818103600083015261140b816113cf565b9050919050565b6000819050919050565b61142d61142882610b78565b611412565b82525050565b600061143f828661141c565b60208201915061144f828561135e565b915061145b828461135e565b9150819050949350505050565b7f46656520616c7265616479207061696420666f722074686973206d6f6e746800600082015250565b600061149e601f83610c6b565b91506114a982611468565b602082019050919050565b600060208201905081810360008301526114cd81611491565b9050919050565b60008190508160005260206000209050919050565b60006020601f8301049050919050565b600082821b905092915050565b6000600883026115367fffffffffffffffffffffffffffffffffffffffffffffffffffffffffffffffff826114f9565b61154086836114f9565b95508019841693508086168417925050509392505050565b6000819050919050565b600061157d61157861157384610bae565b611558565b610bae565b9050919050565b6000819050919050565b61159783611562565b6115ab6115a382611584565b848454611506565b825550505050565b600090565b6115c06115b3565b6115cb81848461158e565b505050565b5b818110156115ef576115e46000826115b8565b6001810190506115d1565b5050565b601f82111561163457611605816114d4565b61160e846114e9565b8101602085101561161d578190505b611631611629856114e9565b8301826115d0565b50505b505050565b600082821c905092915050565b600061165760001984600802611639565b1980831691505092915050565b60006116708383611646565b9150826002028217905092915050565b61168982610c60565b67ffffffffffffffff8111156116a2576116a1610df1565b5b6116ac8254611322565b6116b78282856115f3565b600060209050601f8311600181146116ea57600084156116d8578287015190505b6116e28582611664565b86555061174a565b601f1984166116f8866114d4565b60005b82811015611720578489015182556001820191506020850194506020810190506116fb565b8683101561173d5784890151611739601f891682611646565b8355505b6001600288020188555050505b505050505050565b6000602082019050818103600083015261176c8184610cb7565b90509291505056fea26469706673582212200cb2b26ead02ad9b352641ea718544a73a25e5c59fdb2b3b3f3db970fe407f4c64736f6c63430008130033",
  "immutableReferences": {},
  "source": "// SPDX-License-Identifier: MIT\npragma solidity ^0.8.0;\n\ncontract MaintenanceFee {\n    struct Payment {\n        bytes32 buildingId;\n        string apartmentNo;\n        address tenant;\n        string month; // YYYY-MM\n        uint256 amount;\n        uint256 paymentDate;\n        bool isPaid;\n        bool exists;\n    }\n    \n    mapping(bytes32 => Payment) public payments;\n    mapping(bytes32 => mapping(string => bytes32[])) public buildingPayments; // buildingId -> month -> paymentIds\n    mapping(bytes32 => uint256) public monthlyFees; // buildingId -> fee\n    mapping(bytes32 => address) public buildingManagers; // buildingId -> manager address\n    \n    event FeeSet(bytes32 indexed buildingId, uint256 amount);\n    event FeePaid(bytes32 indexed paymentId, bytes32 indexed buildingId, string month);\n    \n    function setMonthlyFee(bytes32 _buildingId, uint256 _amount) public {\n        // Ideally restricted to manager\n        monthlyFees[_buildingId] = _amount;\n        buildingManagers[_buildingId] = msg.sender; // Set the sender as the manager\n        emit FeeSet(_buildingId, _amount);\n    }\n    \n    function payFee(bytes32 _buildingId, string memory _apartmentNo, string memory _month) public payable {\n        require(msg.value >= monthlyFees[_buildingId], \"Insufficient fee amount\");\n        \n        bytes32 paymentId = keccak256(abi.encodePacked(_buildingId, _apartmentNo, _month));\n        require(!payments[paymentId].isPaid, \"Fee already paid for this month\");\n\n        payments[paymentId] = Payment({\n            buildingId: _buildingId,\n            apartmentNo: _apartmentNo,\n            tenant: msg.sender,\n            month: _month,\n            amount: msg.value,\n            paymentDate: block.timestamp,\n            isPaid: true,\n            exists: true\n        });\n        \n        buildingPayments[_buildingId][_month].push(paymentId);\n        \n        // Transfer fee to the building manager\n        address manager = buildingManagers[_buildingId];\n        if (manager != address(0)) {\n            payable(manager).transfer(msg.value);\n        }\n        \n        emit FeePaid(paymentId, _buildingId, _month);\n    }\n    \n    function getPayment(bytes32 _paymentId) public view returns (Payment memory) {\n        return payments[_paymentId];\n    }\n\n    function getBuildingPayments(bytes32 _buildingId, string memory _month) public view returns (bytes32[] memory) {\n        return buildingPayments[_buildingId][_month];\n    }\n}\n",
  "sourcePath": "/app/contracts/MaintenanceFee.sol",
  "compiler": {
    "name": "solc",
    "version": "0.8.19+commit.7dd6d404.Emscripten.clang"
  },
  "schemaVersion": "3.4.16",
  "updatedAt": "2025-12-23T13:43:25.975Z",
  "networkType": "ethereum",
  "devdoc": {
    "kind": "dev",
    "methods": {},
    "version": 1
  },
  "userdoc": {
    "kind": "user",
    "methods": {},
    "version": 1
  }
}