{
  "contractName": "RentPayment",
  "abi": [
    {
      "anonymous": false,
      "inputs": [
        {
          "indexed": true,
          "internalType": "bytes32",
          "name": "recordId",
          "type": "bytes32"
        },
        {
          "indexed": true,
          "internalType": "bytes32",
          "name": "propertyId",
          "type": "bytes32"
        },
        {
          "indexed": false,
          "internalType": "string",
          "name": "month",
          "type": "string"
        },
        {
          "indexed": false,
          "internalType": "uint256",
          "name": "amount",
          "type": "uint256"
        }
      ],
      "name": "RentPaid",
      "type": "event"
    },
    {
      "inputs": [
        {
          "internalType": "bytes32",
          "name": "",
          "type": "bytes32"
        },
        {
          "internalType": "uint256",
          "name": "",
          "type": "uint256"
        }
      ],
      "name": "propertyRentHistory",
      "outputs": [
        {
          "internalType": "bytes32",
          "name": "",
          "type": "bytes32"
        }
      ],
      "stateMutability": "view",
      "type": "function",
      "constant": true
    },
    {
      "inputs": [
        {
          "internalType": "bytes32",
          "name": "",
          "type": "bytes32"
        }
      ],
      "name": "rentRecords",
      "outputs": [
        {
          "internalType": "bytes32",
          "name": "propertyId",
          "type": "bytes32"
        },
        {
          "internalType": "address",
          "name": "tenant",
          "type": "address"
        },
        {
          "internalType": "address",
          "name": "owner",
          "type": "address"
        },
        {
          "internalType": "string",
          "name": "month",
          "type": "string"
        },
        {
          "internalType": "uint256",
          "name": "amount",
          "type": "uint256"
        },
        {
          "internalType": "uint256",
          "name": "paymentDate",
          "type": "uint256"
        },
        {
          "internalType": "bool",
          "name": "isPaid",
          "type": "bool"
        },
        {
          "internalType": "bool",
          "name": "exists",
          "type": "bool"
        }
      ],
      "stateMutability": "view",
      "type": "function",
      "constant": true
    },
    {
      "inputs": [
        {
          "internalType": "address",
          "name": "",
          "type": "address"
        },
        {
          "internalType": "uint256",
          "name": "",
          "type": "uint256"
        }
      ],
      "name": "tenantHistory",
      "outputs": [
        {
          "internalType": "bytes32",
          "name": "",
          "type": "bytes32"
        }
      ],
      "stateMutability": "view",
      "type": "function",
      "constant": true
    },
    {
      "inputs": [
        {
          "internalType": "bytes32",
          "name": "_propertyId",
          "type": "bytes32"
        },
        {
          "internalType": "address",
          "name": "_owner",
          "type": "address"
        },
        {
          "internalType": "string",
          "name": "_month",
          "type": "string"
        }
      ],
      "name": "payRent",
      "outputs": [],
      "stateMutability": "payable",
      "type": "function",
      "payable": true
    },
    {
      "inputs": [
        {
          "internalType": "address",
          "name": "_tenant",
          "type": "address"
        }
      ],
      "name": "getTenantHistory",
      "outputs": [
        {
          "internalType": "bytes32[]",
          "name": "",
          "type": "bytes32[]"
        }
      ],
      "stateMutability": "view",
      "type": "function",
      "constant": true
    },
    {
      "inputs": [
        {
          "internalType": "bytes32",
          "name": "_propertyId",
          "type": "bytes32"
        }
      ],
      "name": "getPropertyRentHistory",
      "outputs": [
        {
          "internalType": "bytes32[]",
          "name": "",
          "type": "bytes32[]"
        }
      ],
      "stateMutability": "view",
      "type": "function",
      "constant": true
    },
    {
      "inputs": [
        {
          "internalType": "bytes32",
          "name": "_recordId",
          "type": "bytes32"
        }
      ],
      "name": "getRentRecord",
      "outputs": [
        {
          "components": [
            {
              "internalType": "bytes32",
              "name": "propertyId",
              "type": "bytes32"
            },
            {
              "internalType": "address",
              "name": "tenant",
              "type": "address"
            },
            {
              "internalType": "address",
              "name": "owner",
              "type": "address"
            },
            {
              "internalType": "string",
              "name": "month",
              "type": "string"
            },
            {
              "internalType": "uint256",
              "name": "amount",
              "type": "uint256"
            },
            {
              "internalType": "uint256",
              "name": "paymentDate",
              "type": "uint256"
            },
            {
              "internalType": "bool",
              "name": "isPaid",
              "type": "bool"
            },
            {
              "internalType": "bool",
              "name": "exists",
              "type": "bool"
            }
          ],
          "internalType": "struct RentPayment.RentRecord",
          "name": "",
          "type": "tuple"
        }
      ],
      "stateMutability": "view",
      "type": "function",
      "constant": true
    }
  ],
  "bytecode": "0x608060405234801561001057600080fd5b50611668806100206000396000f3fe6080604052600436106100705760003560e01c80639c875f591161004e5780639c875f591461010b578063b1bee3b714610148578063b1e5386814610185578063b7ca75cb146101c957610070565b806321c980131461007557806325c96ee2146100b25780635206dbf2146100ce575b600080fd5b34801561008157600080fd5b5061009c60048036038101906100979190610abd565b610206565b6040516100a99190610bb2565b60405180910390f35b6100cc60048036038101906100c79190610d46565b61029d565b005b3480156100da57600080fd5b506100f560048036038101906100f09190610deb565b61061d565b6040516101029190610e3a565b60405180910390f35b34801561011757600080fd5b50610132600480360381019061012d9190610e55565b61064e565b60405161013f9190610fea565b60405180910390f35b34801561015457600080fd5b5061016f600480360381019061016a9190610e55565b61080d565b60405161017c9190610bb2565b60405180910390f35b34801561019157600080fd5b506101ac60048036038101906101a79190610e55565b610878565b6040516101c0989796959493929190611083565b60405180910390f35b3480156101d557600080fd5b506101f060048036038101906101eb9190611108565b6109a2565b6040516101fd9190610e3a565b60405180910390f35b6060600160008373ffffffffffffffffffffffffffffffffffffffff1673ffffffffffffffffffffffffffffffffffffffff16815260200190815260200160002080548060200260200160405190810160405280929190818152602001828054801561029157602002820191906000526020600020905b81548152602001906001019080831161027d575b50505050509050919050565b600034116102e0576040517f08c379a00000000000000000000000000000000000000000000000000000000081526004016102d7906111ba565b60405180910390fd5b60008382336040516020016102f79392919061127f565b60405160208183030381529060405280519060200120905060008082815260200190815260200160002060060160009054906101000a900460ff1615610372576040517f08c379a000000000000000000000000000000000000000000000000000000000815260040161036990611304565b60405180910390fd5b6040518061010001604052808581526020013373ffffffffffffffffffffffffffffffffffffffff1681526020018473ffffffffffffffffffffffffffffffffffffffff168152602001838152602001348152602001428152602001600115158152602001600115158152506000808381526020019081526020016000206000820151816000015560208201518160010160006101000a81548173ffffffffffffffffffffffffffffffffffffffff021916908373ffffffffffffffffffffffffffffffffffffffff16021790555060408201518160020160006101000a81548173ffffffffffffffffffffffffffffffffffffffff021916908373ffffffffffffffffffffffffffffffffffffffff160217905550606082015181600301908161049d9190611530565b506080820151816004015560a0820151816005015560c08201518160060160006101000a81548160ff02191690831515021790555060e08201518160060160016101000a81548160ff021916908315150217905550905050600160003373ffffffffffffffffffffffffffffffffffffffff1673ffffffffffffffffffffffffffffffffffffffff168152602001908152602001600020819080600181540180825580915050600190039060005260206000200160009091909190915055600260008581526020019081526020016000208190806001815401808255809150506001900390600052602060002001600090919091909150558273ffffffffffffffffffffffffffffffffffffffff166108fc349081150290604051600060405180830381858888f193505050501580156105db573d6000803e3d6000fd5b5083817ffa2b321c1aefe99f35512eba54aa3812c5bf41207c0a68a5cf8d9c8ec110b4da843460405161060f929190611602565b60405180910390a350505050565b6001602052816000526040600020818154811061063957600080fd5b90600052602060002001600091509150505481565b6106566109d3565b60008083815260200190815260200160002060405180610100016040529081600082015481526020016001820160009054906101000a900473ffffffffffffffffffffffffffffffffffffffff1673ffffffffffffffffffffffffffffffffffffffff1673ffffffffffffffffffffffffffffffffffffffff1681526020016002820160009054906101000a900473ffffffffffffffffffffffffffffffffffffffff1673ffffffffffffffffffffffffffffffffffffffff1673ffffffffffffffffffffffffffffffffffffffff16815260200160038201805461073a90611353565b80601f016020809104026020016040519081016040528092919081815260200182805461076690611353565b80156107b35780601f10610788576101008083540402835291602001916107b3565b820191906000526020600020905b81548152906001019060200180831161079657829003601f168201915b5050505050815260200160048201548152602001600582015481526020016006820160009054906101000a900460ff161515151581526020016006820160019054906101000a900460ff1615151515815250509050919050565b60606002600083815260200190815260200160002080548060200260200160405190810160405280929190818152602001828054801561086c57602002820191906000526020600020905b815481526020019060010190808311610858575b50505050509050919050565b60006020528060005260406000206000915090508060000154908060010160009054906101000a900473ffffffffffffffffffffffffffffffffffffffff16908060020160009054906101000a900473ffffffffffffffffffffffffffffffffffffffff16908060030180546108ed90611353565b80601f016020809104026020016040519081016040528092919081815260200182805461091990611353565b80156109665780601f1061093b57610100808354040283529160200191610966565b820191906000526020600020905b81548152906001019060200180831161094957829003601f168201915b5050505050908060040154908060050154908060060160009054906101000a900460ff16908060060160019054906101000a900460ff16905088565b600260205281600052604060002081815481106109be57600080fd5b90600052602060002001600091509150505481565b60405180610100016040528060008019168152602001600073ffffffffffffffffffffffffffffffffffffffff168152602001600073ffffffffffffffffffffffffffffffffffffffff1681526020016060815260200160008152602001600081526020016000151581526020016000151581525090565b6000604051905090565b600080fd5b600080fd5b600073ffffffffffffffffffffffffffffffffffffffff82169050919050565b6000610a8a82610a5f565b9050919050565b610a9a81610a7f565b8114610aa557600080fd5b50565b600081359050610ab781610a91565b92915050565b600060208284031215610ad357610ad2610a55565b5b6000610ae184828501610aa8565b91505092915050565b600081519050919050565b600082825260208201905092915050565b6000819050602082019050919050565b6000819050919050565b610b2981610b16565b82525050565b6000610b3b8383610b20565b60208301905092915050565b6000602082019050919050565b6000610b5f82610aea565b610b698185610af5565b9350610b7483610b06565b8060005b83811015610ba5578151610b8c8882610b2f565b9750610b9783610b47565b925050600181019050610b78565b5085935050505092915050565b60006020820190508181036000830152610bcc8184610b54565b905092915050565b610bdd81610b16565b8114610be857600080fd5b50565b600081359050610bfa81610bd4565b92915050565b600080fd5b600080fd5b6000601f19601f8301169050919050565b7f4e487b7100000000000000000000000000000000000000000000000000000000600052604160045260246000fd5b610c5382610c0a565b810181811067ffffffffffffffff82111715610c7257610c71610c1b565b5b80604052505050565b6000610c85610a4b565b9050610c918282610c4a565b919050565b600067ffffffffffffffff821115610cb157610cb0610c1b565b5b610cba82610c0a565b9050602081019050919050565b82818337600083830152505050565b6000610ce9610ce484610c96565b610c7b565b905082815260208101848484011115610d0557610d04610c05565b5b610d10848285610cc7565b509392505050565b600082601f830112610d2d57610d2c610c00565b5b8135610d3d848260208601610cd6565b91505092915050565b600080600060608486031215610d5f57610d5e610a55565b5b6000610d6d86828701610beb565b9350506020610d7e86828701610aa8565b925050604084013567ffffffffffffffff811115610d9f57610d9e610a5a565b5b610dab86828701610d18565b9150509250925092565b6000819050919050565b610dc881610db5565b8114610dd357600080fd5b50565b600081359050610de581610dbf565b92915050565b60008060408385031215610e0257610e01610a55565b5b6000610e1085828601610aa8565b9250506020610e2185828601610dd6565b9150509250929050565b610e3481610b16565b82525050565b6000602082019050610e4f6000830184610e2b565b92915050565b600060208284031215610e6b57610e6a610a55565b5b6000610e7984828501610beb565b91505092915050565b610e8b81610a7f565b82525050565b600081519050919050565b600082825260208201905092915050565b60005b83811015610ecb578082015181840152602081019050610eb0565b60008484015250505050565b6000610ee282610e91565b610eec8185610e9c565b9350610efc818560208601610ead565b610f0581610c0a565b840191505092915050565b610f1981610db5565b82525050565b60008115159050919050565b610f3481610f1f565b82525050565b600061010083016000830151610f536000860182610b20565b506020830151610f666020860182610e82565b506040830151610f796040860182610e82565b5060608301518482036060860152610f918282610ed7565b9150506080830151610fa66080860182610f10565b5060a0830151610fb960a0860182610f10565b5060c0830151610fcc60c0860182610f2b565b5060e0830151610fdf60e0860182610f2b565b508091505092915050565b600060208201905081810360008301526110048184610f3a565b905092915050565b61101581610a7f565b82525050565b600082825260208201905092915050565b600061103782610e91565b611041818561101b565b9350611051818560208601610ead565b61105a81610c0a565b840191505092915050565b61106e81610db5565b82525050565b61107d81610f1f565b82525050565b600061010082019050611099600083018b610e2b565b6110a6602083018a61100c565b6110b3604083018961100c565b81810360608301526110c5818861102c565b90506110d46080830187611065565b6110e160a0830186611065565b6110ee60c0830185611074565b6110fb60e0830184611074565b9998505050505050505050565b6000806040838503121561111f5761111e610a55565b5b600061112d85828601610beb565b925050602061113e85828601610dd6565b9150509250929050565b7f52656e7420616d6f756e74206d7573742062652067726561746572207468616e60008201527f2030000000000000000000000000000000000000000000000000000000000000602082015250565b60006111a460228361101b565b91506111af82611148565b604082019050919050565b600060208201905081810360008301526111d381611197565b9050919050565b6000819050919050565b6111f56111f082610b16565b6111da565b82525050565b600081905092915050565b600061121182610e91565b61121b81856111fb565b935061122b818560208601610ead565b80840191505092915050565b60008160601b9050919050565b600061124f82611237565b9050919050565b600061126182611244565b9050919050565b61127961127482610a7f565b611256565b82525050565b600061128b82866111e4565b60208201915061129b8285611206565b91506112a78284611268565b601482019150819050949350505050565b7f52656e7420616c7265616479207061696420666f722074686973206d6f6e7468600082015250565b60006112ee60208361101b565b91506112f9826112b8565b602082019050919050565b6000602082019050818103600083015261131d816112e1565b9050919050565b7f4e487b7100000000000000000000000000000000000000000000000000000000600052602260045260246000fd5b6000600282049050600182168061136b57607f821691505b60208210810361137e5761137d611324565b5b50919050565b60008190508160005260206000209050919050565b60006020601f8301049050919050565b600082821b905092915050565b6000600883026113e67fffffffffffffffffffffffffffffffffffffffffffffffffffffffffffffffff826113a9565b6113f086836113a9565b95508019841693508086168417925050509392505050565b6000819050919050565b600061142d61142861142384610db5565b611408565b610db5565b9050919050565b6000819050919050565b61144783611412565b61145b61145382611434565b8484546113b6565b825550505050565b600090565b611470611463565b61147b81848461143e565b505050565b5b8181101561149f57611494600082611468565b600181019050611481565b5050565b601f8211156114e4576114b581611384565b6114be84611399565b810160208510156114cd578190505b6114e16114d985611399565b830182611480565b50505b505050565b600082821c905092915050565b6000611507600019846008026114e9565b1980831691505092915050565b600061152083836114f6565b9150826002028217905092915050565b61153982610e91565b67ffffffffffffffff81111561155257611551610c1b565b5b61155c8254611353565b6115678282856114a3565b600060209050601f83116001811461159a5760008415611588578287015190505b6115928582611514565b8655506115fa565b601f1984166115a886611384565b60005b828110156115d0578489015182556001820191506020850194506020810190506115ab565b868310156115ed57848901516115e9601f8916826114f6565b8355505b6001600288020188555050505b505050505050565b6000604082019050818103600083015261161c818561102c565b905061162b6020830184611065565b939250505056fea26469706673582212207572eff473be5795b2a141e50547a0fa7fa15887604ec4a92cfe554ae6a4056764736f6c63430008130033",
  "immutableReferences": {},
  "source": "// SPDX-License-Identifier: MIT\npragma solidity ^0.8.0;\n\ncontract RentPayment {\n    struct RentRecord {\n        bytes32 propertyId;\n        address tenant;\n        address owner;\n        string month;\n        uint256 amount;\n        uint256 paymentDate;\n        bool isPaid;\n        bool exists;\n    }\n    \n    mapping(bytes32 => RentRecord) public rentRecords;\n    mapping(address => bytes32[]) public tenantHistory;\n    mapping(bytes32 => bytes32[]) public propertyRentHistory;\n    \n    event RentPaid(bytes32 indexed recordId, bytes32 indexed propertyId, string month, uint256 amount);\n    \n    function payRent(bytes32 _propertyId, address _owner, string memory _month) public payable {\n        require(msg.value > 0, \"Rent amount must be greater than 0\");\n        \n        bytes32 recordId = keccak256(abi.encodePacked(_propertyId, _month, msg.sender));\n        require(!rentRecords[recordId].isPaid, \"Rent already paid for this month\");\n\n        rentRecords[recordId] = RentRecord({\n            propertyId: _propertyId,\n            tenant: msg.sender,\n            owner: _owner,\n            month: _month,\n            amount: msg.value,\n            paymentDate: block.timestamp,\n            isPaid: true,\n            exists: true\n        });\n        \n        tenantHistory[msg.sender].push(recordId);\n        propertyRentHistory[_propertyId].push(recordId);\n        \n        // Transfer rent to owner\n        payable(_owner).transfer(msg.value);\n        \n        emit RentPaid(recordId, _propertyId, _month, msg.value);\n    }\n    \n    function getTenantHistory(address _tenant) public view returns (bytes32[] memory) {\n        return tenantHistory[_tenant];\n    }\n\n    function getPropertyRentHistory(bytes32 _propertyId) public view returns (bytes32[] memory) {\n        return propertyRentHistory[_propertyId];\n    }\n\n    function getRentRecord(bytes32 _recordId) public view returns (RentRecord memory) {\n        return rentRecords[_recordId];\n    }\n}\n",
  "sourcePath": "/app/contracts/RentPayment.sol",
  "compiler": {
    "name": "solc",
    "version": "0.8.19+commit.7dd6d404.Emscripten.clang"
  },
  "schemaVersion": "3.4.16",
  "updatedAt": "2025-12-23T13:43:25.987Z",
  "networkType": "ethereum",
  "devdoc": {
    "kind": "dev",
    "methods": {},
    "version": 1
  },
  "userdoc": {
    "kind": "user",
    "methods": {},
    "version": 1
  }
}