{
  "contractName": "DepositQueue",
  "abi": [
    {
      "anonymous": false,
      "inputs": [
        {
          "indexed": true,
          "internalType": "bytes32",
          "name": "depositId",
          "type": "bytes32"
        }
      ],
      "name": "DepositAccepted",
      "type": "event"
    },
    {
      "anonymous": false,
      "inputs": [
        {
          "indexed": true,
          "internalType": "bytes32",
          "name": "depositId",
          "type": "bytes32"
        }
      ],
      "name": "DepositRejected",
      "type": "event"
    },
    {
      "anonymous": false,
      "inputs": [
        {
          "indexed": true,
          "internalType": "bytes32",
          "name": "depositId",
          "type": "bytes32"
        },
        {
          "indexed": true,
          "internalType": "bytes32",
          "name": "propertyId",
          "type": "bytes32"
        },
        {
          "indexed": false,
          "internalType": "uint256",
          "name": "position",
          "type": "uint256"
        }
      ],
      "name": "DepositSubmitted",
      "type": "event"
    },
    {
      "anonymous": false,
      "inputs": [
        {
          "indexed": true,
          "internalType": "bytes32",
          "name": "depositId",
          "type": "bytes32"
        }
      ],
      "name": "DepositWithdrawn",
      "type": "event"
    },
    {
      "inputs": [
        {
          "internalType": "bytes32",
          "name": "",
          "type": "bytes32"
        }
      ],
      "name": "deposits",
      "outputs": [
        {
          "internalType": "bytes32",
          "name": "propertyId",
          "type": "bytes32"
        },
        {
          "internalType": "address",
          "name": "depositor",
          "type": "address"
        },
        {
          "internalType": "bytes32",
          "name": "anonymousId",
          "type": "bytes32"
        },
        {
          "internalType": "uint256",
          "name": "amount",
          "type": "uint256"
        },
        {
          "internalType": "uint256",
          "name": "queuePosition",
          "type": "uint256"
        },
        {
          "internalType": "uint256",
          "name": "timestamp",
          "type": "uint256"
        },
        {
          "internalType": "string",
          "name": "status",
          "type": "string"
        },
        {
          "internalType": "bool",
          "name": "exists",
          "type": "bool"
        }
      ],
      "stateMutability": "view",
      "type": "function",
      "constant": true
    },
    {
      "inputs": [
        {
          "internalType": "bytes32",
          "name": "",
          "type": "bytes32"
        },
        {
          "internalType": "uint256",
          "name": "",
          "type": "uint256"
        }
      ],
      "name": "propertyQueues",
      "outputs": [
        {
          "internalType": "bytes32",
          "name": "",
          "type": "bytes32"
        }
      ],
      "stateMutability": "view",
      "type": "function",
      "constant": true
    },
    {
      "inputs": [
        {
          "internalType": "bytes32",
          "name": "_propertyId",
          "type": "bytes32"
        }
      ],
      "name": "submitDeposit",
      "outputs": [
        {
          "internalType": "bytes32",
          "name": "",
          "type": "bytes32"
        },
        {
          "internalType": "uint256",
          "name": "",
          "type": "uint256"
        }
      ],
      "stateMutability": "payable",
      "type": "function",
      "payable": true
    },
    {
      "inputs": [
        {
          "internalType": "bytes32",
          "name": "_depositId",
          "type": "bytes32"
        }
      ],
      "name": "acceptDeposit",
      "outputs": [],
      "stateMutability": "nonpayable",
      "type": "function"
    },
    {
      "inputs": [
        {
          "internalType": "bytes32",
          "name": "_depositId",
          "type": "bytes32"
        }
      ],
      "name": "rejectDeposit",
      "outputs": [],
      "stateMutability": "nonpayable",
      "type": "function"
    },
    {
      "inputs": [
        {
          "internalType": "bytes32",
          "name": "_depositId",
          "type": "bytes32"
        }
      ],
      "name": "withdrawDeposit",
      "outputs": [],
      "stateMutability": "nonpayable",
      "type": "function"
    },
    {
      "inputs": [
        {
          "internalType": "bytes32",
          "name": "_propertyId",
          "type": "bytes32"
        }
      ],
      "name": "getQueue",
      "outputs": [
        {
          "internalType": "bytes32[]",
          "name": "",
          "type": "bytes32[]"
        }
      ],
      "stateMutability": "view",
      "type": "function",
      "constant": true
    }
  ],
  "bytecode": "0x608060405234801561001057600080fd5b50611838806100206000396000f3fe6080604052600436106100705760003560e01c806394b87ce01161004e57806394b87ce01461010b578063a8e06bc31461013c578063da7f2b6a14610165578063dfdf8337146101a257610070565b80633d4dff7b146100755780635879f85f146100b957806390276513146100e2575b600080fd5b34801561008157600080fd5b5061009c60048036038101906100979190610cea565b6101df565b6040516100b0989796959493929190610e2b565b60405180910390f35b3480156100c557600080fd5b506100e060048036038101906100db9190610cea565b6102dc565b005b3480156100ee57600080fd5b5061010960048036038101906101049190610cea565b6104c2565b005b61012560048036038101906101209190610cea565b6106dd565b604051610133929190610eb0565b60405180910390f35b34801561014857600080fd5b50610163600480360381019061015e9190610cea565b61098a565b005b34801561017157600080fd5b5061018c60048036038101906101879190610f05565b610c13565b6040516101999190610f45565b60405180910390f35b3480156101ae57600080fd5b506101c960048036038101906101c49190610cea565b610c44565b6040516101d6919061101e565b60405180910390f35b60006020528060005260406000206000915090508060000154908060010160009054906101000a900473ffffffffffffffffffffffffffffffffffffffff16908060020154908060030154908060040154908060050154908060060180546102469061106f565b80601f01602080910402602001604051908101604052809291908181526020018280546102729061106f565b80156102bf5780601f10610294576101008083540402835291602001916102bf565b820191906000526020600020905b8154815290600101906020018083116102a257829003601f168201915b5050505050908060070160009054906101000a900460ff16905088565b60008082815260200190815260200160002060070160009054906101000a900460ff1661033e576040517f08c379a0000000000000000000000000000000000000000000000000000000008152600401610335906110ec565b60405180910390fd5b60405160200161034d90611163565b604051602081830303815290604052805190602001206000808381526020019081526020016000206006016040516020016103889190611210565b60405160208183030381529060405280519060200120146103de576040517f08c379a00000000000000000000000000000000000000000000000000000000081526004016103d590611273565b60405180910390fd5b6040518060400160405280600881526020017f616363657074656400000000000000000000000000000000000000000000000081525060008083815260200190815260200160002060060190816104359190611459565b503373ffffffffffffffffffffffffffffffffffffffff166108fc600080848152602001908152602001600020600301549081150290604051600060405180830381858888f19350505050158015610491573d6000803e3d6000fd5b50807fb32d08458dac64452b4ae0c2a40f5c4fd4b288bd0842432f9ad5dfe3c63227a960405160405180910390a250565b60008082815260200190815260200160002060070160009054906101000a900460ff16610524576040517f08c379a000000000000000000000000000000000000000000000000000000000815260040161051b906110ec565b60405180910390fd5b60405160200161053390611163565b6040516020818303038152906040528051906020012060008083815260200190815260200160002060060160405160200161056e9190611210565b60405160208183030381529060405280519060200120146105c4576040517f08c379a00000000000000000000000000000000000000000000000000000000081526004016105bb90611273565b60405180910390fd5b6040518060400160405280600881526020017f72656a6563746564000000000000000000000000000000000000000000000000815250600080838152602001908152602001600020600601908161061b9190611459565b5060008082815260200190815260200160002060010160009054906101000a900473ffffffffffffffffffffffffffffffffffffffff1673ffffffffffffffffffffffffffffffffffffffff166108fc600080848152602001908152602001600020600301549081150290604051600060405180830381858888f193505050501580156106ac573d6000803e3d6000fd5b50807fe1db9e989758262f713fadb80e2525b808b2d9e99a67af5974d781f9a957189060405160405180910390a250565b60008060003411610723576040517f08c379a000000000000000000000000000000000000000000000000000000000815260040161071a9061159d565b60405180910390fd5b60003342604051602001610738929190611672565b6040516020818303038152906040528051906020012090506000338542600160008981526020019081526020016000208054905060405160200161077f94939291906116ca565b60405160208183030381529060405280519060200120905060006001806000888152602001908152602001600020805490506107bb9190611747565b90506040518061010001604052808781526020013373ffffffffffffffffffffffffffffffffffffffff1681526020018481526020013481526020018281526020014281526020016040518060400160405280600781526020017f70656e64696e67000000000000000000000000000000000000000000000000008152508152602001600115158152506000808481526020019081526020016000206000820151816000015560208201518160010160006101000a81548173ffffffffffffffffffffffffffffffffffffffff021916908373ffffffffffffffffffffffffffffffffffffffff16021790555060408201518160020155606082015181600301556080820151816004015560a0820151816005015560c08201518160060190816108e59190611459565b5060e08201518160070160006101000a81548160ff0219169083151502179055509050506001600087815260200190815260200160002082908060018154018082558091505060019003906000526020600020016000909190919091505585827f1e12592c735fb8113c932f52635790b4205bb29df67efaa77d8bf558ed2472a483604051610974919061177b565b60405180910390a3818194509450505050915091565b60008082815260200190815260200160002060070160009054906101000a900460ff166109ec576040517f08c379a00000000000000000000000000000000000000000000000000000000081526004016109e3906110ec565b60405180910390fd5b3373ffffffffffffffffffffffffffffffffffffffff1660008083815260200190815260200160002060010160009054906101000a900473ffffffffffffffffffffffffffffffffffffffff1673ffffffffffffffffffffffffffffffffffffffff1614610a8f576040517f08c379a0000000000000000000000000000000000000000000000000000000008152600401610a86906117e2565b60405180910390fd5b604051602001610a9e90611163565b60405160208183030381529060405280519060200120600080838152602001908152602001600020600601604051602001610ad99190611210565b6040516020818303038152906040528051906020012014610b2f576040517f08c379a0000000000000000000000000000000000000000000000000000000008152600401610b2690611273565b60405180910390fd5b6040518060400160405280600981526020017f77697468647261776e00000000000000000000000000000000000000000000008152506000808381526020019081526020016000206006019081610b869190611459565b503373ffffffffffffffffffffffffffffffffffffffff166108fc600080848152602001908152602001600020600301549081150290604051600060405180830381858888f19350505050158015610be2573d6000803e3d6000fd5b50807fdfdf5339352283b6cc31672e0d5dcfc4f32e9cbe4c7d9153ce5c0b9f008b644960405160405180910390a250565b60016020528160005260406000208181548110610c2f57600080fd5b90600052602060002001600091509150505481565b606060016000838152602001908152602001600020805480602002602001604051908101604052809291908181526020018280548015610ca357602002820191906000526020600020905b815481526020019060010190808311610c8f575b50505050509050919050565b600080fd5b6000819050919050565b610cc781610cb4565b8114610cd257600080fd5b50565b600081359050610ce481610cbe565b92915050565b600060208284031215610d0057610cff610caf565b5b6000610d0e84828501610cd5565b91505092915050565b610d2081610cb4565b82525050565b600073ffffffffffffffffffffffffffffffffffffffff82169050919050565b6000610d5182610d26565b9050919050565b610d6181610d46565b82525050565b6000819050919050565b610d7a81610d67565b82525050565b600081519050919050565b600082825260208201905092915050565b60005b83811015610dba578082015181840152602081019050610d9f565b60008484015250505050565b6000601f19601f8301169050919050565b6000610de282610d80565b610dec8185610d8b565b9350610dfc818560208601610d9c565b610e0581610dc6565b840191505092915050565b60008115159050919050565b610e2581610e10565b82525050565b600061010082019050610e41600083018b610d17565b610e4e602083018a610d58565b610e5b6040830189610d17565b610e686060830188610d71565b610e756080830187610d71565b610e8260a0830186610d71565b81810360c0830152610e948185610dd7565b9050610ea360e0830184610e1c565b9998505050505050505050565b6000604082019050610ec56000830185610d17565b610ed26020830184610d71565b9392505050565b610ee281610d67565b8114610eed57600080fd5b50565b600081359050610eff81610ed9565b92915050565b60008060408385031215610f1c57610f1b610caf565b5b6000610f2a85828601610cd5565b9250506020610f3b85828601610ef0565b9150509250929050565b6000602082019050610f5a6000830184610d17565b92915050565b600081519050919050565b600082825260208201905092915050565b6000819050602082019050919050565b610f9581610cb4565b82525050565b6000610fa78383610f8c565b60208301905092915050565b6000602082019050919050565b6000610fcb82610f60565b610fd58185610f6b565b9350610fe083610f7c565b8060005b83811015611011578151610ff88882610f9b565b975061100383610fb3565b925050600181019050610fe4565b5085935050505092915050565b600060208201905081810360008301526110388184610fc0565b905092915050565b7f4e487b7100000000000000000000000000000000000000000000000000000000600052602260045260246000fd5b6000600282049050600182168061108757607f821691505b60208210810361109a57611099611040565b5b50919050565b7f4465706f73697420646f6573206e6f7420657869737400000000000000000000600082015250565b60006110d6601683610d8b565b91506110e1826110a0565b602082019050919050565b60006020820190508181036000830152611105816110c9565b9050919050565b600081905092915050565b7f70656e64696e6700000000000000000000000000000000000000000000000000600082015250565b600061114d60078361110c565b915061115882611117565b600782019050919050565b600061116e82611140565b9150819050919050565b60008190508160005260206000209050919050565b6000815461119a8161106f565b6111a4818661110c565b945060018216600081146111bf57600181146111d457611207565b60ff1983168652811515820286019350611207565b6111dd85611178565b60005b838110156111ff578154818901526001820191506020810190506111e0565b838801955050505b50505092915050565b600061121c828461118d565b915081905092915050565b7f4465706f736974206973206e6f742070656e64696e6700000000000000000000600082015250565b600061125d601683610d8b565b915061126882611227565b602082019050919050565b6000602082019050818103600083015261128c81611250565b9050919050565b7f4e487b7100000000000000000000000000000000000000000000000000000000600052604160045260246000fd5b60006020601f8301049050919050565b600082821b905092915050565b60006008830261130f7fffffffffffffffffffffffffffffffffffffffffffffffffffffffffffffffff826112d2565b61131986836112d2565b95508019841693508086168417925050509392505050565b6000819050919050565b600061135661135161134c84610d67565b611331565b610d67565b9050919050565b6000819050919050565b6113708361133b565b61138461137c8261135d565b8484546112df565b825550505050565b600090565b61139961138c565b6113a4818484611367565b505050565b5b818110156113c8576113bd600082611391565b6001810190506113aa565b5050565b601f82111561140d576113de81611178565b6113e7846112c2565b810160208510156113f6578190505b61140a611402856112c2565b8301826113a9565b50505b505050565b600082821c905092915050565b600061143060001984600802611412565b1980831691505092915050565b6000611449838361141f565b9150826002028217905092915050565b61146282610d80565b67ffffffffffffffff81111561147b5761147a611293565b5b611485825461106f565b6114908282856113cc565b600060209050601f8311600181146114c357600084156114b1578287015190505b6114bb858261143d565b865550611523565b601f1984166114d186611178565b60005b828110156114f9578489015182556001820191506020850194506020810190506114d4565b868310156115165784890151611512601f89168261141f565b8355505b6001600288020188555050505b505050505050565b7f4465706f73697420616d6f756e74206d7573742062652067726561746572207460008201527f68616e2030000000000000000000000000000000000000000000000000000000602082015250565b6000611587602583610d8b565b91506115928261152b565b604082019050919050565b600060208201905081810360008301526115b68161157a565b9050919050565b60008160601b9050919050565b60006115d5826115bd565b9050919050565b60006115e7826115ca565b9050919050565b6115ff6115fa82610d46565b6115dc565b82525050565b6000819050919050565b61162061161b82610d67565b611605565b82525050565b7f5345435245545f53414c54000000000000000000000000000000000000000000600082015250565b600061165c600b8361110c565b915061166782611626565b600b82019050919050565b600061167e82856115ee565b60148201915061168e828461160f565b60208201915061169d8261164f565b91508190509392505050565b6000819050919050565b6116c46116bf82610cb4565b6116a9565b82525050565b60006116d682876115ee565b6014820191506116e682866116b3565b6020820191506116f6828561160f565b602082019150611706828461160f565b60208201915081905095945050505050565b7f4e487b7100000000000000000000000000000000000000000000000000000000600052601160045260246000fd5b600061175282610d67565b915061175d83610d67565b925082820190508082111561177557611774611718565b5b92915050565b60006020820190506117906000830184610d71565b92915050565b7f4f6e6c79206465706f7369746f722063616e2077697468647261770000000000600082015250565b60006117cc601b83610d8b565b91506117d782611796565b602082019050919050565b600060208201905081810360008301526117fb816117bf565b905091905056fea2646970667358221220ee6daaa096eff781baffe1f50a11719583bb15841ca8b6b5f2fadb7807b6c5d864736f6c63430008130033",
  "immutableReferences": {},
  "source": "// SPDX-License-Identifier: MIT\npragma solidity ^0.8.0;\n\ncontract DepositQueue {\n    struct Deposit {\n        bytes32 propertyId;\n        address depositor;\n        bytes32 anonymousId;\n        uint256 amount;\n        uint256 queuePosition;\n        uint256 timestamp;\n        string status; // pending, accepted, rejected, withdrawn\n        bool exists;\n    }\n    \n    mapping(bytes32 => Deposit) public deposits;\n    mapping(bytes32 => bytes32[]) public propertyQueues;\n    \n    event DepositSubmitted(bytes32 indexed depositId, bytes32 indexed propertyId, uint256 position);\n    event DepositAccepted(bytes32 indexed depositId);\n    event DepositRejected(bytes32 indexed depositId);\n    event DepositWithdrawn(bytes32 indexed depositId);\n    \n    function submitDeposit(bytes32 _propertyId) public payable returns (bytes32, uint256) {\n        require(msg.value > 0, \"Deposit amount must be greater than 0\");\n        \n        bytes32 anonymousId = keccak256(abi.encodePacked(msg.sender, block.timestamp, \"SECRET_SALT\"));\n        // Add queue length to ensure unique hash even for same user/block\n        bytes32 depositId = keccak256(abi.encodePacked(msg.sender, _propertyId, block.timestamp, propertyQueues[_propertyId].length));\n        \n        uint256 position = propertyQueues[_propertyId].length + 1;\n        \n        deposits[depositId] = Deposit({\n            propertyId: _propertyId,\n            depositor: msg.sender,\n            anonymousId: anonymousId,\n            amount: msg.value,\n            queuePosition: position,\n            timestamp: block.timestamp,\n            status: \"pending\",\n            exists: true\n        });\n        \n        propertyQueues[_propertyId].push(depositId);\n        \n        emit DepositSubmitted(depositId, _propertyId, position);\n        return (depositId, position);\n    }\n    \n    function acceptDeposit(bytes32 _depositId) public {\n        // In a real scenario, we'd check if msg.sender is the property owner via PropertyRegistry\n        require(deposits[_depositId].exists, \"Deposit does not exist\");\n        require(keccak256(abi.encodePacked(deposits[_depositId].status)) == keccak256(abi.encodePacked(\"pending\")), \"Deposit is not pending\");\n        \n        deposits[_depositId].status = \"accepted\";\n        // Transfer funds to property owner (simplified logic here)\n        payable(msg.sender).transfer(deposits[_depositId].amount);\n        \n        emit DepositAccepted(_depositId);\n    }\n    \n    function rejectDeposit(bytes32 _depositId) public {\n        require(deposits[_depositId].exists, \"Deposit does not exist\");\n        require(keccak256(abi.encodePacked(deposits[_depositId].status)) == keccak256(abi.encodePacked(\"pending\")), \"Deposit is not pending\");\n        \n        deposits[_depositId].status = \"rejected\";\n        // Refund funds to depositor\n        payable(deposits[_depositId].depositor).transfer(deposits[_depositId].amount);\n        \n        emit DepositRejected(_depositId);\n    }\n\n    function withdrawDeposit(bytes32 _depositId) public {\n        require(deposits[_depositId].exists, \"Deposit does not exist\");\n        require(deposits[_depositId].depositor == msg.sender, \"Only depositor can withdraw\");\n        require(keccak256(abi.encodePacked(deposits[_depositId].status)) == keccak256(abi.encodePacked(\"pending\")), \"Deposit is not pending\");\n        \n        deposits[_depositId].status = \"withdrawn\";\n        payable(msg.sender).transfer(deposits[_depositId].amount);\n        \n        emit DepositWithdrawn(_depositId);\n    }\n    \n    function getQueue(bytes32 _propertyId) public view returns (bytes32[] memory) {\n        return propertyQueues[_propertyId];\n    }\n}\n",
  "sourcePath": "/app/contracts/DepositQueue.sol",
  "compiler": {
    "name": "solc",
    "version": "0.8.19+commit.7dd6d404.Emscripten.clang"
  },
  "schemaVersion": "3.4.16",
  "updatedAt": "2025-12-23T13:43:25.958Z",
  "networkType": "ethereum",
  "devdoc": {
    "kind": "dev",
    "methods": {},
    "version": 1
  },
  "userdoc": {
    "kind": "user",
    "methods": {},
    "version": 1
  }
}