{
  "contractName": "PropertyRegistry",
  "abi": [
    {
      "anonymous": false,
      "inputs": [
        {
          "indexed": true,
          "internalType": "bytes32",
          "name": "propertyId",
          "type": "bytes32"
        },
        {
          "indexed": true,
          "internalType": "address",
          "name": "owner",
          "type": "address"
        }
      ],
      "name": "PropertyRegistered",
      "type": "event"
    },
    {
      "anonymous": false,
      "inputs": [
        {
          "indexed": true,
          "internalType": "bytes32",
          "name": "propertyId",
          "type": "bytes32"
        },
        {
          "indexed": false,
          "internalType": "string",
          "name": "newStatus",
          "type": "string"
        }
      ],
      "name": "PropertyStatusChanged",
      "type": "event"
    },
    {
      "inputs": [
        {
          "internalType": "uint256",
          "name": "",
          "type": "uint256"
        }
      ],
      "name": "allPropertyIds",
      "outputs": [
        {
          "internalType": "bytes32",
          "name": "",
          "type": "bytes32"
        }
      ],
      "stateMutability": "view",
      "type": "function",
      "constant": true
    },
    {
      "inputs": [
        {
          "internalType": "address",
          "name": "",
          "type": "address"
        },
        {
          "internalType": "uint256",
          "name": "",
          "type": "uint256"
        }
      ],
      "name": "ownerProperties",
      "outputs": [
        {
          "internalType": "bytes32",
          "name": "",
          "type": "bytes32"
        }
      ],
      "stateMutability": "view",
      "type": "function",
      "constant": true
    },
    {
      "inputs": [
        {
          "internalType": "bytes32",
          "name": "",
          "type": "bytes32"
        }
      ],
      "name": "properties",
      "outputs": [
        {
          "internalType": "address",
          "name": "owner",
          "type": "address"
        },
        {
          "internalType": "string",
          "name": "propertyType",
          "type": "string"
        },
        {
          "internalType": "string",
          "name": "location",
          "type": "string"
        },
        {
          "internalType": "uint256",
          "name": "price",
          "type": "uint256"
        },
        {
          "internalType": "uint256",
          "name": "maintenanceFee",
          "type": "uint256"
        },
        {
          "internalType": "string",
          "name": "status",
          "type": "string"
        },
        {
          "internalType": "uint256",
          "name": "timestamp",
          "type": "uint256"
        },
        {
          "internalType": "bool",
          "name": "exists",
          "type": "bool"
        }
      ],
      "stateMutability": "view",
      "type": "function",
      "constant": true
    },
    {
      "inputs": [
        {
          "internalType": "string",
          "name": "_propertyType",
          "type": "string"
        },
        {
          "internalType": "string",
          "name": "_location",
          "type": "string"
        },
        {
          "internalType": "uint256",
          "name": "_price",
          "type": "uint256"
        },
        {
          "internalType": "uint256",
          "name": "_maintenanceFee",
          "type": "uint256"
        }
      ],
      "name": "registerProperty",
      "outputs": [
        {
          "internalType": "bytes32",
          "name": "",
          "type": "bytes32"
        }
      ],
      "stateMutability": "nonpayable",
      "type": "function"
    },
    {
      "inputs": [
        {
          "internalType": "bytes32",
          "name": "_propertyId",
          "type": "bytes32"
        },
        {
          "internalType": "string",
          "name": "_newStatus",
          "type": "string"
        }
      ],
      "name": "updatePropertyStatus",
      "outputs": [],
      "stateMutability": "nonpayable",
      "type": "function"
    },
    {
      "inputs": [
        {
          "internalType": "bytes32",
          "name": "_propertyId",
          "type": "bytes32"
        }
      ],
      "name": "getProperty",
      "outputs": [
        {
          "components": [
            {
              "internalType": "address",
              "name": "owner",
              "type": "address"
            },
            {
              "internalType": "string",
              "name": "propertyType",
              "type": "string"
            },
            {
              "internalType": "string",
              "name": "location",
              "type": "string"
            },
            {
              "internalType": "uint256",
              "name": "price",
              "type": "uint256"
            },
            {
              "internalType": "uint256",
              "name": "maintenanceFee",
              "type": "uint256"
            },
            {
              "internalType": "string",
              "name": "status",
              "type": "string"
            },
            {
              "internalType": "uint256",
              "name": "timestamp",
              "type": "uint256"
            },
            {
              "internalType": "bool",
              "name": "exists",
              "type": "bool"
            }
          ],
          "internalType": "struct PropertyRegistry.Property",
          "name": "",
          "type": "tuple"
        }
      ],
      "stateMutability": "view",
      "type": "function",
      "constant": true
    },
    {
      "inputs": [],
      "name": "getAllPropertyIds",
      "outputs": [
        {
          "internalType": "bytes32[]",
          "name": "",
          "type": "bytes32[]"
        }
      ],
      "stateMutability": "view",
      "type": "function",
      "constant": true
    },
    {
      "inputs": [
        {
          "internalType": "address",
          "name": "_owner",
          "type": "address"
        }
      ],
      "name": "getOwnerProperties",
      "outputs": [
        {
          "internalType": "bytes32[]",
          "name": "",
          "type": "bytes32[]"
        }
      ],
      "stateMutability": "view",
      "type": "function",
      "constant": true
    },
    {
      "inputs": [
        {
          "internalType": "bytes32",
          "name": "_propertyId",
          "type": "bytes32"
        }
      ],
      "name": "buyProperty",
      "outputs": [],
      "stateMutability": "payable",
      "type": "function",
      "payable": true
    }
  ],
  "bytecode": "0x608060405234801561001057600080fd5b50611ebd806100206000396000f3fe6080604052600436106100865760003560e01c806397794d0f1161005957806397794d0f1461016d578063bd15627314610196578063cad99850146101da578063cb644897146101f6578063e044dab81461023357610086565b8063463f7a891461008b5780634efcaca5146100c85780634ff69e83146101055780638f48bd5b14610130575b600080fd5b34801561009757600080fd5b506100b260048036038101906100ad91906110d9565b610270565b6040516100bf91906112c9565b60405180910390f35b3480156100d457600080fd5b506100ef60048036038101906100ea9190611317565b610544565b6040516100fc9190611353565b60405180910390f35b34801561011157600080fd5b5061011a610568565b604051610127919061142c565b60405180910390f35b34801561013c57600080fd5b506101576004803603810190610152919061147a565b6105c0565b6040516101649190611353565b60405180910390f35b34801561017957600080fd5b50610194600480360381019061018f91906115ef565b6105f1565b005b3480156101a257600080fd5b506101bd60048036038101906101b891906110d9565b610755565b6040516101d19897969594939291906116c2565b60405180910390f35b6101f460048036038101906101ef91906110d9565b610962565b005b34801561020257600080fd5b5061021d60048036038101906102189190611755565b610d28565b60405161022a919061142c565b60405180910390f35b34801561023f57600080fd5b5061025a60048036038101906102559190611782565b610dbf565b6040516102679190611353565b60405180910390f35b610278611032565b60008083815260200190815260200160002060070160009054906101000a900460ff166102da576040517f08c379a00000000000000000000000000000000000000000000000000000000081526004016102d19061186d565b60405180910390fd5b600080838152602001908152602001600020604051806101000160405290816000820160009054906101000a900473ffffffffffffffffffffffffffffffffffffffff1673ffffffffffffffffffffffffffffffffffffffff1673ffffffffffffffffffffffffffffffffffffffff16815260200160018201805461035e906118bc565b80601f016020809104026020016040519081016040528092919081815260200182805461038a906118bc565b80156103d75780601f106103ac576101008083540402835291602001916103d7565b820191906000526020600020905b8154815290600101906020018083116103ba57829003601f168201915b505050505081526020016002820180546103f0906118bc565b80601f016020809104026020016040519081016040528092919081815260200182805461041c906118bc565b80156104695780601f1061043e57610100808354040283529160200191610469565b820191906000526020600020905b81548152906001019060200180831161044c57829003601f168201915b505050505081526020016003820154815260200160048201548152602001600582018054610496906118bc565b80601f01602080910402602001604051908101604052809291908181526020018280546104c2906118bc565b801561050f5780601f106104e45761010080835404028352916020019161050f565b820191906000526020600020905b8154815290600101906020018083116104f257829003601f168201915b50505050508152602001600682015481526020016007820160009054906101000a900460ff1615151515815250509050919050565b6002818154811061055457600080fd5b906000526020600020016000915090505481565b606060028054806020026020016040519081016040528092919081815260200182805480156105b657602002820191906000526020600020905b8154815260200190600101908083116105a2575b5050505050905090565b600160205281600052604060002081815481106105dc57600080fd5b90600052602060002001600091509150505481565b60008083815260200190815260200160002060070160009054906101000a900460ff16610653576040517f08c379a000000000000000000000000000000000000000000000000000000000815260040161064a9061186d565b60405180910390fd5b3373ffffffffffffffffffffffffffffffffffffffff1660008084815260200190815260200160002060000160009054906101000a900473ffffffffffffffffffffffffffffffffffffffff1673ffffffffffffffffffffffffffffffffffffffff16146106f6576040517f08c379a00000000000000000000000000000000000000000000000000000000081526004016106ed90611939565b60405180910390fd5b8060008084815260200190815260200160002060050190816107189190611b05565b50817fb9ad33060fac1adfc948cccd977f822a18ca7fc0b7129bd9fe43087ecdbdb6f0826040516107499190611bd7565b60405180910390a25050565b60006020528060005260406000206000915090508060000160009054906101000a900473ffffffffffffffffffffffffffffffffffffffff169080600101805461079e906118bc565b80601f01602080910402602001604051908101604052809291908181526020018280546107ca906118bc565b80156108175780601f106107ec57610100808354040283529160200191610817565b820191906000526020600020905b8154815290600101906020018083116107fa57829003601f168201915b50505050509080600201805461082c906118bc565b80601f0160208091040260200160405190810160405280929190818152602001828054610858906118bc565b80156108a55780601f1061087a576101008083540402835291602001916108a5565b820191906000526020600020905b81548152906001019060200180831161088857829003601f168201915b5050505050908060030154908060040154908060050180546108c6906118bc565b80601f01602080910402602001604051908101604052809291908181526020018280546108f2906118bc565b801561093f5780601f106109145761010080835404028352916020019161093f565b820191906000526020600020905b81548152906001019060200180831161092257829003601f168201915b5050505050908060060154908060070160009054906101000a900460ff16905088565b60008082815260200190815260200160002060070160009054906101000a900460ff166109c4576040517f08c379a00000000000000000000000000000000000000000000000000000000081526004016109bb9061186d565b60405180910390fd5b60008060008381526020019081526020016000206003015411610a1c576040517f08c379a0000000000000000000000000000000000000000000000000000000008152600401610a1390611c45565b60405180910390fd5b60008082815260200190815260200160002060030154341015610a74576040517f08c379a0000000000000000000000000000000000000000000000000000000008152600401610a6b90611cb1565b60405180910390fd5b3373ffffffffffffffffffffffffffffffffffffffff1660008083815260200190815260200160002060000160009054906101000a900473ffffffffffffffffffffffffffffffffffffffff1673ffffffffffffffffffffffffffffffffffffffff1603610b17576040517f08c379a0000000000000000000000000000000000000000000000000000000008152600401610b0e90611d1d565b60405180910390fd5b600080600083815260200190815260200160002060000160009054906101000a900473ffffffffffffffffffffffffffffffffffffffff1690503360008084815260200190815260200160002060000160006101000a81548173ffffffffffffffffffffffffffffffffffffffff021916908373ffffffffffffffffffffffffffffffffffffffff1602179055506040518060400160405280600481526020017f736f6c64000000000000000000000000000000000000000000000000000000008152506000808481526020019081526020016000206005019081610bfc9190611b05565b50600160003373ffffffffffffffffffffffffffffffffffffffff1673ffffffffffffffffffffffffffffffffffffffff1681526020019081526020016000208290806001815401808255809150506001900390600052602060002001600090919091909150558073ffffffffffffffffffffffffffffffffffffffff166108fc349081150290604051600060405180830381858888f19350505050158015610ca9573d6000803e3d6000fd5b50817fb9ad33060fac1adfc948cccd977f822a18ca7fc0b7129bd9fe43087ecdbdb6f0604051610cd890611d89565b60405180910390a23373ffffffffffffffffffffffffffffffffffffffff16827f2d6e05d547f3c1843983bc82665d29cb61f59971b95db17c4771d8ea3a0563f160405160405180910390a35050565b6060600160008373ffffffffffffffffffffffffffffffffffffffff1673ffffffffffffffffffffffffffffffffffffffff168152602001908152602001600020805480602002602001604051908101604052809291908181526020018280548015610db357602002820191906000526020600020905b815481526020019060010190808311610d9f575b50505050509050919050565b600080338542604051602001610dd793929190611e4e565b6040516020818303038152906040528051906020012090506040518061010001604052803373ffffffffffffffffffffffffffffffffffffffff1681526020018781526020018681526020018581526020018481526020016040518060400160405280600981526020017f617661696c61626c65000000000000000000000000000000000000000000000081525081526020014281526020016001151581525060008083815260200190815260200160002060008201518160000160006101000a81548173ffffffffffffffffffffffffffffffffffffffff021916908373ffffffffffffffffffffffffffffffffffffffff1602179055506020820151816001019081610ee59190611b05565b506040820151816002019081610efb9190611b05565b50606082015181600301556080820151816004015560a0820151816005019081610f259190611b05565b5060c0820151816006015560e08201518160070160006101000a81548160ff021916908315150217905550905050600160003373ffffffffffffffffffffffffffffffffffffffff1673ffffffffffffffffffffffffffffffffffffffff16815260200190815260200160002081908060018154018082558091505060019003906000526020600020016000909190919091505560028190806001815401808255809150506001900390600052602060002001600090919091909150553373ffffffffffffffffffffffffffffffffffffffff16817f2d6e05d547f3c1843983bc82665d29cb61f59971b95db17c4771d8ea3a0563f160405160405180910390a380915050949350505050565b604051806101000160405280600073ffffffffffffffffffffffffffffffffffffffff1681526020016060815260200160608152602001600081526020016000815260200160608152602001600081526020016000151581525090565b6000604051905090565b600080fd5b600080fd5b6000819050919050565b6110b6816110a3565b81146110c157600080fd5b50565b6000813590506110d3816110ad565b92915050565b6000602082840312156110ef576110ee611099565b5b60006110fd848285016110c4565b91505092915050565b600073ffffffffffffffffffffffffffffffffffffffff82169050919050565b600061113182611106565b9050919050565b61114181611126565b82525050565b600081519050919050565b600082825260208201905092915050565b60005b83811015611181578082015181840152602081019050611166565b60008484015250505050565b6000601f19601f8301169050919050565b60006111a982611147565b6111b38185611152565b93506111c3818560208601611163565b6111cc8161118d565b840191505092915050565b6000819050919050565b6111ea816111d7565b82525050565b60008115159050919050565b611205816111f0565b82525050565b6000610100830160008301516112246000860182611138565b506020830151848203602086015261123c828261119e565b91505060408301518482036040860152611256828261119e565b915050606083015161126b60608601826111e1565b50608083015161127e60808601826111e1565b5060a083015184820360a0860152611296828261119e565b91505060c08301516112ab60c08601826111e1565b5060e08301516112be60e08601826111fc565b508091505092915050565b600060208201905081810360008301526112e3818461120b565b905092915050565b6112f4816111d7565b81146112ff57600080fd5b50565b600081359050611311816112eb565b92915050565b60006020828403121561132d5761132c611099565b5b600061133b84828501611302565b91505092915050565b61134d816110a3565b82525050565b60006020820190506113686000830184611344565b92915050565b600081519050919050565b600082825260208201905092915050565b6000819050602082019050919050565b6113a3816110a3565b82525050565b60006113b5838361139a565b60208301905092915050565b6000602082019050919050565b60006113d98261136e565b6113e38185611379565b93506113ee8361138a565b8060005b8381101561141f57815161140688826113a9565b9750611411836113c1565b9250506001810190506113f2565b5085935050505092915050565b6000602082019050818103600083015261144681846113ce565b905092915050565b61145781611126565b811461146257600080fd5b50565b6000813590506114748161144e565b92915050565b6000806040838503121561149157611490611099565b5b600061149f85828601611465565b92505060206114b085828601611302565b9150509250929050565b600080fd5b600080fd5b7f4e487b7100000000000000000000000000000000000000000000000000000000600052604160045260246000fd5b6114fc8261118d565b810181811067ffffffffffffffff8211171561151b5761151a6114c4565b5b80604052505050565b600061152e61108f565b905061153a82826114f3565b919050565b600067ffffffffffffffff82111561155a576115596114c4565b5b6115638261118d565b9050602081019050919050565b82818337600083830152505050565b600061159261158d8461153f565b611524565b9050828152602081018484840111156115ae576115ad6114bf565b5b6115b9848285611570565b509392505050565b600082601f8301126115d6576115d56114ba565b5b81356115e684826020860161157f565b91505092915050565b6000806040838503121561160657611605611099565b5b6000611614858286016110c4565b925050602083013567ffffffffffffffff8111156116355761163461109e565b5b611641858286016115c1565b9150509250929050565b61165481611126565b82525050565b600082825260208201905092915050565b600061167682611147565b611680818561165a565b9350611690818560208601611163565b6116998161118d565b840191505092915050565b6116ad816111d7565b82525050565b6116bc816111f0565b82525050565b6000610100820190506116d8600083018b61164b565b81810360208301526116ea818a61166b565b905081810360408301526116fe818961166b565b905061170d60608301886116a4565b61171a60808301876116a4565b81810360a083015261172c818661166b565b905061173b60c08301856116a4565b61174860e08301846116b3565b9998505050505050505050565b60006020828403121561176b5761176a611099565b5b600061177984828501611465565b91505092915050565b6000806000806080858703121561179c5761179b611099565b5b600085013567ffffffffffffffff8111156117ba576117b961109e565b5b6117c6878288016115c1565b945050602085013567ffffffffffffffff8111156117e7576117e661109e565b5b6117f3878288016115c1565b935050604061180487828801611302565b925050606061181587828801611302565b91505092959194509250565b7f50726f706572747920646f6573206e6f74206578697374000000000000000000600082015250565b600061185760178361165a565b915061186282611821565b602082019050919050565b600060208201905081810360008301526118868161184a565b9050919050565b7f4e487b7100000000000000000000000000000000000000000000000000000000600052602260045260246000fd5b600060028204905060018216806118d457607f821691505b6020821081036118e7576118e661188d565b5b50919050565b7f4f6e6c79206f776e65722063616e207570646174652073746174757300000000600082015250565b6000611923601c8361165a565b915061192e826118ed565b602082019050919050565b6000602082019050818103600083015261195281611916565b9050919050565b60008190508160005260206000209050919050565b60006020601f8301049050919050565b600082821b905092915050565b6000600883026119bb7fffffffffffffffffffffffffffffffffffffffffffffffffffffffffffffffff8261197e565b6119c5868361197e565b95508019841693508086168417925050509392505050565b6000819050919050565b6000611a026119fd6119f8846111d7565b6119dd565b6111d7565b9050919050565b6000819050919050565b611a1c836119e7565b611a30611a2882611a09565b84845461198b565b825550505050565b600090565b611a45611a38565b611a50818484611a13565b505050565b5b81811015611a7457611a69600082611a3d565b600181019050611a56565b5050565b601f821115611ab957611a8a81611959565b611a938461196e565b81016020851015611aa2578190505b611ab6611aae8561196e565b830182611a55565b50505b505050565b600082821c905092915050565b6000611adc60001984600802611abe565b1980831691505092915050565b6000611af58383611acb565b9150826002028217905092915050565b611b0e82611147565b67ffffffffffffffff811115611b2757611b266114c4565b5b611b3182546118bc565b611b3c828285611a78565b600060209050601f831160018114611b6f5760008415611b5d578287015190505b611b678582611ae9565b865550611bcf565b601f198416611b7d86611959565b60005b82811015611ba557848901518255600182019150602085019450602081019050611b80565b86831015611bc25784890151611bbe601f891682611acb565b8355505b6001600288020188555050505b505050505050565b60006020820190508181036000830152611bf1818461166b565b905092915050565b7f50726f7065727479206e6f7420666f722073616c650000000000000000000000600082015250565b6000611c2f60158361165a565b9150611c3a82611bf9565b602082019050919050565b60006020820190508181036000830152611c5e81611c22565b9050919050565b7f496e73756666696369656e742066756e64730000000000000000000000000000600082015250565b6000611c9b60128361165a565b9150611ca682611c65565b602082019050919050565b60006020820190508181036000830152611cca81611c8e565b9050919050565b7f43616e6e6f7420627579206f776e2070726f7065727479000000000000000000600082015250565b6000611d0760178361165a565b9150611d1282611cd1565b602082019050919050565b60006020820190508181036000830152611d3681611cfa565b9050919050565b7f736f6c6400000000000000000000000000000000000000000000000000000000600082015250565b6000611d7360048361165a565b9150611d7e82611d3d565b602082019050919050565b60006020820190508181036000830152611da281611d66565b9050919050565b60008160601b9050919050565b6000611dc182611da9565b9050919050565b6000611dd382611db6565b9050919050565b611deb611de682611126565b611dc8565b82525050565b600081905092915050565b6000611e0782611147565b611e118185611df1565b9350611e21818560208601611163565b80840191505092915050565b6000819050919050565b611e48611e43826111d7565b611e2d565b82525050565b6000611e5a8286611dda565b601482019150611e6a8285611dfc565b9150611e768284611e37565b60208201915081905094935050505056fea2646970667358221220b11260730de0e3395a977a08181da5764ce6855332ad5ad265d4ca8d895a784464736f6c63430008130033",
  "immutableReferences": {},
  "source": "// SPDX-License-Identifier: MIT\npragma solidity ^0.8.0;\n\ncontract PropertyRegistry {\n    struct Property {\n        address owner;\n        string propertyType;\n        string location;\n        uint256 price;\n        uint256 maintenanceFee;\n        string status; // available, pending, rented, sold\n        uint256 timestamp;\n        bool exists;\n    }\n    \n    mapping(bytes32 => Property) public properties;\n    mapping(address => bytes32[]) public ownerProperties;\n    bytes32[] public allPropertyIds;\n    \n    event PropertyRegistered(bytes32 indexed propertyId, address indexed owner);\n    event PropertyStatusChanged(bytes32 indexed propertyId, string newStatus);\n    \n    function registerProperty(\n        string memory _propertyType,\n        string memory _location,\n        uint256 _price,\n        uint256 _maintenanceFee\n    ) public returns (bytes32) {\n        bytes32 propertyId = keccak256(abi.encodePacked(msg.sender, _location, block.timestamp));\n        \n        properties[propertyId] = Property({\n            owner: msg.sender,\n            propertyType: _propertyType,\n            location: _location,\n            price: _price,\n            maintenanceFee: _maintenanceFee,\n            status: \"available\",\n            timestamp: block.timestamp,\n            exists: true\n        });\n        \n        ownerProperties[msg.sender].push(propertyId);\n        allPropertyIds.push(propertyId);\n        \n        emit PropertyRegistered(propertyId, msg.sender);\n        return propertyId;\n    }\n    \n    function updatePropertyStatus(bytes32 _propertyId, string memory _newStatus) public {\n        require(properties[_propertyId].exists, \"Property does not exist\");\n        require(properties[_propertyId].owner == msg.sender, \"Only owner can update status\");\n        \n        properties[_propertyId].status = _newStatus;\n        emit PropertyStatusChanged(_propertyId, _newStatus);\n    }\n    \n    function getProperty(bytes32 _propertyId) public view returns (Property memory) {\n        require(properties[_propertyId].exists, \"Property does not exist\");\n        return properties[_propertyId];\n    }\n\n    function getAllPropertyIds() public view returns (bytes32[] memory) {\n        return allPropertyIds;\n    }\n\n    function getOwnerProperties(address _owner) public view returns (bytes32[] memory) {\n        return ownerProperties[_owner];\n    }\n\n    function buyProperty(bytes32 _propertyId) public payable {\n        require(properties[_propertyId].exists, \"Property does not exist\");\n        require(properties[_propertyId].price > 0, \"Property not for sale\");\n        require(msg.value >= properties[_propertyId].price, \"Insufficient funds\");\n        require(properties[_propertyId].owner != msg.sender, \"Cannot buy own property\");\n        \n        address previousOwner = properties[_propertyId].owner;\n        \n        // Transfer ownership\n        properties[_propertyId].owner = msg.sender;\n        properties[_propertyId].status = \"sold\";\n        \n        // Add to new owner's list\n        ownerProperties[msg.sender].push(_propertyId);\n        \n        // Transfer funds to previous owner\n        payable(previousOwner).transfer(msg.value);\n        \n        emit PropertyStatusChanged(_propertyId, \"sold\");\n        emit PropertyRegistered(_propertyId, msg.sender); // Emit ownership change\n    }\n}\n",
  "sourcePath": "/app/contracts/PropertyRegistry.sol",
  "compiler": {
    "name": "solc",
    "version": "0.8.19+commit.7dd6d404.Emscripten.clang"
  },
  "schemaVersion": "3.4.16",
  "updatedAt": "2025-12-23T13:43:25.945Z",
  "networkType": "ethereum",
  "devdoc": {
    "kind": "dev",
    "methods": {},
    "version": 1
  },
  "userdoc": {
    "kind": "user",
    "methods": {},
    "version": 1
  }
}